{
  "_format": "hh-sol-artifact-1",
  "contractName": "ComicManagement",
  "sourceName": "contracts/ComicManagement.sol",
  "abi": [
    {
      "inputs": [
        {
          "internalType": "address",
          "name": "_adminAddress",
          "type": "address"
        }
      ],
      "stateMutability": "nonpayable",
      "type": "constructor"
    },
    {
      "anonymous": false,
      "inputs": [
        {
          "indexed": false,
          "internalType": "uint256",
          "name": "comicId",
          "type": "uint256"
        },
        {
          "indexed": false,
          "internalType": "enum ComicManagement.ComicStatus",
          "name": "newStatus",
          "type": "uint8"
        },
        {
          "indexed": true,
          "internalType": "address",
          "name": "reviewer",
          "type": "address"
        }
      ],
      "name": "ComicReviewed",
      "type": "event"
    },
    {
      "anonymous": false,
      "inputs": [
        {
          "indexed": false,
          "internalType": "uint256",
          "name": "comicId",
          "type": "uint256"
        },
        {
          "indexed": true,
          "internalType": "address",
          "name": "submitter",
          "type": "address"
        }
      ],
      "name": "ComicSubmitted",
      "type": "event"
    },
    {
      "inputs": [],
      "name": "adminAddress",
      "outputs": [
        {
          "internalType": "address",
          "name": "",
          "type": "address"
        }
      ],
      "stateMutability": "view",
      "type": "function"
    },
    {
      "inputs": [
        {
          "internalType": "uint256",
          "name": "",
          "type": "uint256"
        }
      ],
      "name": "comics",
      "outputs": [
        {
          "internalType": "uint256",
          "name": "comicId",
          "type": "uint256"
        },
        {
          "internalType": "string",
          "name": "title",
          "type": "string"
        },
        {
          "internalType": "string",
          "name": "author",
          "type": "string"
        },
        {
          "internalType": "string",
          "name": "description",
          "type": "string"
        },
        {
          "internalType": "string",
          "name": "ipfsHash",
          "type": "string"
        },
        {
          "internalType": "enum ComicManagement.ComicStatus",
          "name": "status",
          "type": "uint8"
        },
        {
          "internalType": "address",
          "name": "submitter",
          "type": "address"
        },
        {
          "internalType": "address",
          "name": "reviewer",
          "type": "address"
        }
      ],
      "stateMutability": "view",
      "type": "function"
    },
    {
      "inputs": [],
      "name": "getAllComicIds",
      "outputs": [
        {
          "internalType": "uint256[]",
          "name": "",
          "type": "uint256[]"
        }
      ],
      "stateMutability": "view",
      "type": "function"
    },
    {
      "inputs": [],
      "name": "nextComicId",
      "outputs": [
        {
          "internalType": "uint256",
          "name": "",
          "type": "uint256"
        }
      ],
      "stateMutability": "view",
      "type": "function"
    },
    {
      "inputs": [
        {
          "internalType": "uint256",
          "name": "_comicId",
          "type": "uint256"
        },
        {
          "internalType": "enum ComicManagement.ComicStatus",
          "name": "_newStatus",
          "type": "uint8"
        }
      ],
      "name": "reviewComic",
      "outputs": [],
      "stateMutability": "nonpayable",
      "type": "function"
    },
    {
      "inputs": [
        {
          "internalType": "string",
          "name": "_title",
          "type": "string"
        },
        {
          "internalType": "string",
          "name": "_author",
          "type": "string"
        },
        {
          "internalType": "string",
          "name": "_description",
          "type": "string"
        },
        {
          "internalType": "string",
          "name": "_ipfsHash",
          "type": "string"
        }
      ],
      "name": "submitComic",
      "outputs": [],
      "stateMutability": "nonpayable",
      "type": "function"
    }
  ],
  "bytecode": "0x60806040526001805534801561001457600080fd5b5060405161169d38038061169d833981810160405281019061003691906100e0565b80600260006101000a81548173ffffffffffffffffffffffffffffffffffffffff021916908373ffffffffffffffffffffffffffffffffffffffff1602179055505061010d565b600080fd5b600073ffffffffffffffffffffffffffffffffffffffff82169050919050565b60006100ad82610082565b9050919050565b6100bd816100a2565b81146100c857600080fd5b50565b6000815190506100da816100b4565b92915050565b6000602082840312156100f6576100f561007d565b5b6000610104848285016100cb565b91505092915050565b6115818061011c6000396000f3fe608060405234801561001057600080fd5b50600436106100625760003560e01c806324cc8b1b146100675780635580c1c7146100835780637a80dc1d1461009f57806384807520146100d65780638ca4fa7b146100f4578063fc6f946814610112575b600080fd5b610081600480360381019061007c9190610a14565b610130565b005b61009d60048036038101906100989190610b9a565b6103f7565b005b6100b960048036038101906100b49190610c71565b610616565b6040516100cd989796959493929190610de4565b60405180910390f35b6100de6108cb565b6040516100eb9190610e7e565b60405180910390f35b6100fc6108d1565b6040516101099190610f57565b60405180910390f35b61011a61097f565b6040516101279190610f79565b60405180910390f35b600260009054906101000a900473ffffffffffffffffffffffffffffffffffffffff1673ffffffffffffffffffffffffffffffffffffffff163373ffffffffffffffffffffffffffffffffffffffff16146101c0576040517f08c379a00000000000000000000000000000000000000000000000000000000081526004016101b790611006565b60405180910390fd5b6000821180156101d1575060015482105b610210576040517f08c379a000000000000000000000000000000000000000000000000000000000815260040161020790611072565b60405180910390fd5b6001600281111561022457610223610d2c565b5b81600281111561023757610236610d2c565b5b1480610266575060028081111561025157610250610d2c565b5b81600281111561026457610263610d2c565b5b145b6102a5576040517f08c379a000000000000000000000000000000000000000000000000000000000815260040161029c906110de565b60405180910390fd5b60008060008481526020019081526020016000209050600060028111156102cf576102ce610d2c565b5b8160050160009054906101000a900460ff1660028111156102f3576102f2610d2c565b5b14610333576040517f08c379a000000000000000000000000000000000000000000000000000000000815260040161032a9061114a565b60405180910390fd5b818160050160006101000a81548160ff0219169083600281111561035a57610359610d2c565b5b0217905550338160060160006101000a81548173ffffffffffffffffffffffffffffffffffffffff021916908373ffffffffffffffffffffffffffffffffffffffff1602179055503373ffffffffffffffffffffffffffffffffffffffff167fc4db24735181575d6adce2b722575d02f52d17ce5bf4854b06dfc0189ebdb50184846040516103ea92919061116a565b60405180910390a2505050565b60006001600081548092919061040c906111c2565b919050559050604051806101000160405280828152602001868152602001858152602001848152602001838152602001600060028111156104505761044f610d2c565b5b81526020013373ffffffffffffffffffffffffffffffffffffffff168152602001600073ffffffffffffffffffffffffffffffffffffffff168152506000808381526020019081526020016000206000820151816000015560208201518160010190816104bd9190611416565b5060408201518160020190816104d39190611416565b5060608201518160030190816104e99190611416565b5060808201518160040190816104ff9190611416565b5060a08201518160050160006101000a81548160ff0219169083600281111561052b5761052a610d2c565b5b021790555060c08201518160050160016101000a81548173ffffffffffffffffffffffffffffffffffffffff021916908373ffffffffffffffffffffffffffffffffffffffff16021790555060e08201518160060160006101000a81548173ffffffffffffffffffffffffffffffffffffffff021916908373ffffffffffffffffffffffffffffffffffffffff1602179055509050503373ffffffffffffffffffffffffffffffffffffffff167f5ba4492f380b0cba445d01e8de56239250446067ad7bc46e16f6f85f3f46cb2e826040516106079190610e7e565b60405180910390a25050505050565b600060205280600052604060002060009150905080600001549080600101805461063f90611239565b80601f016020809104026020016040519081016040528092919081815260200182805461066b90611239565b80156106b85780601f1061068d576101008083540402835291602001916106b8565b820191906000526020600020905b81548152906001019060200180831161069b57829003601f168201915b5050505050908060020180546106cd90611239565b80601f01602080910402602001604051908101604052809291908181526020018280546106f990611239565b80156107465780601f1061071b57610100808354040283529160200191610746565b820191906000526020600020905b81548152906001019060200180831161072957829003601f168201915b50505050509080600301805461075b90611239565b80601f016020809104026020016040519081016040528092919081815260200182805461078790611239565b80156107d45780601f106107a9576101008083540402835291602001916107d4565b820191906000526020600020905b8154815290600101906020018083116107b757829003601f168201915b5050505050908060040180546107e990611239565b80601f016020809104026020016040519081016040528092919081815260200182805461081590611239565b80156108625780601f1061083757610100808354040283529160200191610862565b820191906000526020600020905b81548152906001019060200180831161084557829003601f168201915b5050505050908060050160009054906101000a900460ff16908060050160019054906101000a900473ffffffffffffffffffffffffffffffffffffffff16908060060160009054906101000a900473ffffffffffffffffffffffffffffffffffffffff16905088565b60015481565b60606000600180546108e391906114e8565b67ffffffffffffffff8111156108fc576108fb610a6f565b5b60405190808252806020026020018201604052801561092a5781602001602082028036833780820191505090505b5090506000600190505b60015481101561097757808260018361094d91906114e8565b8151811061095e5761095d61151c565b5b6020026020010181815250508080600101915050610934565b508091505090565b600260009054906101000a900473ffffffffffffffffffffffffffffffffffffffff1681565b6000604051905090565b600080fd5b600080fd5b6000819050919050565b6109cc816109b9565b81146109d757600080fd5b50565b6000813590506109e9816109c3565b92915050565b600381106109fc57600080fd5b50565b600081359050610a0e816109ef565b92915050565b60008060408385031215610a2b57610a2a6109af565b5b6000610a39858286016109da565b9250506020610a4a858286016109ff565b9150509250929050565b600080fd5b600080fd5b6000601f19601f8301169050919050565b7f4e487b7100000000000000000000000000000000000000000000000000000000600052604160045260246000fd5b610aa782610a5e565b810181811067ffffffffffffffff82111715610ac657610ac5610a6f565b5b80604052505050565b6000610ad96109a5565b9050610ae58282610a9e565b919050565b600067ffffffffffffffff821115610b0557610b04610a6f565b5b610b0e82610a5e565b9050602081019050919050565b82818337600083830152505050565b6000610b3d610b3884610aea565b610acf565b905082815260208101848484011115610b5957610b58610a59565b5b610b64848285610b1b565b509392505050565b600082601f830112610b8157610b80610a54565b5b8135610b91848260208601610b2a565b91505092915050565b60008060008060808587031215610bb457610bb36109af565b5b600085013567ffffffffffffffff811115610bd257610bd16109b4565b5b610bde87828801610b6c565b945050602085013567ffffffffffffffff811115610bff57610bfe6109b4565b5b610c0b87828801610b6c565b935050604085013567ffffffffffffffff811115610c2c57610c2b6109b4565b5b610c3887828801610b6c565b925050606085013567ffffffffffffffff811115610c5957610c586109b4565b5b610c6587828801610b6c565b91505092959194509250565b600060208284031215610c8757610c866109af565b5b6000610c95848285016109da565b91505092915050565b610ca7816109b9565b82525050565b600081519050919050565b600082825260208201905092915050565b60005b83811015610ce7578082015181840152602081019050610ccc565b60008484015250505050565b6000610cfe82610cad565b610d088185610cb8565b9350610d18818560208601610cc9565b610d2181610a5e565b840191505092915050565b7f4e487b7100000000000000000000000000000000000000000000000000000000600052602160045260246000fd5b60038110610d6c57610d6b610d2c565b5b50565b6000819050610d7d82610d5b565b919050565b6000610d8d82610d6f565b9050919050565b610d9d81610d82565b82525050565b600073ffffffffffffffffffffffffffffffffffffffff82169050919050565b6000610dce82610da3565b9050919050565b610dde81610dc3565b82525050565b600061010082019050610dfa600083018b610c9e565b8181036020830152610e0c818a610cf3565b90508181036040830152610e208189610cf3565b90508181036060830152610e348188610cf3565b90508181036080830152610e488187610cf3565b9050610e5760a0830186610d94565b610e6460c0830185610dd5565b610e7160e0830184610dd5565b9998505050505050505050565b6000602082019050610e936000830184610c9e565b92915050565b600081519050919050565b600082825260208201905092915050565b6000819050602082019050919050565b610ece816109b9565b82525050565b6000610ee08383610ec5565b60208301905092915050565b6000602082019050919050565b6000610f0482610e99565b610f0e8185610ea4565b9350610f1983610eb5565b8060005b83811015610f4a578151610f318882610ed4565b9750610f3c83610eec565b925050600181019050610f1d565b5085935050505092915050565b60006020820190508181036000830152610f718184610ef9565b905092915050565b6000602082019050610f8e6000830184610dd5565b92915050565b7f4f6e6c792041646d696e2063616e20706572666f726d2074686973206163746960008201527f6f6e2e0000000000000000000000000000000000000000000000000000000000602082015250565b6000610ff0602383610cb8565b9150610ffb82610f94565b604082019050919050565b6000602082019050818103600083015261101f81610fe3565b9050919050565b7f496e76616c696420436f6d69632049442e000000000000000000000000000000600082015250565b600061105c601183610cb8565b915061106782611026565b602082019050919050565b6000602082019050818103600083015261108b8161104f565b9050919050565b7f496e76616c6964205374617475732e0000000000000000000000000000000000600082015250565b60006110c8600f83610cb8565b91506110d382611092565b602082019050919050565b600060208201905081810360008301526110f7816110bb565b9050919050565b7f436f6d696320616c72656164792072657669657765642e000000000000000000600082015250565b6000611134601783610cb8565b915061113f826110fe565b602082019050919050565b6000602082019050818103600083015261116381611127565b9050919050565b600060408201905061117f6000830185610c9e565b61118c6020830184610d94565b9392505050565b7f4e487b7100000000000000000000000000000000000000000000000000000000600052601160045260246000fd5b60006111cd826109b9565b91507fffffffffffffffffffffffffffffffffffffffffffffffffffffffffffffffff82036111ff576111fe611193565b5b600182019050919050565b7f4e487b7100000000000000000000000000000000000000000000000000000000600052602260045260246000fd5b6000600282049050600182168061125157607f821691505b6020821081036112645761126361120a565b5b50919050565b60008190508160005260206000209050919050565b60006020601f8301049050919050565b600082821b905092915050565b6000600883026112cc7fffffffffffffffffffffffffffffffffffffffffffffffffffffffffffffffff8261128f565b6112d6868361128f565b95508019841693508086168417925050509392505050565b6000819050919050565b600061131361130e611309846109b9565b6112ee565b6109b9565b9050919050565b6000819050919050565b61132d836112f8565b6113416113398261131a565b84845461129c565b825550505050565b600090565b611356611349565b611361818484611324565b505050565b5b818110156113855761137a60008261134e565b600181019050611367565b5050565b601f8211156113ca5761139b8161126a565b6113a48461127f565b810160208510156113b3578190505b6113c76113bf8561127f565b830182611366565b50505b505050565b600082821c905092915050565b60006113ed600019846008026113cf565b1980831691505092915050565b600061140683836113dc565b9150826002028217905092915050565b61141f82610cad565b67ffffffffffffffff81111561143857611437610a6f565b5b6114428254611239565b61144d828285611389565b600060209050601f831160018114611480576000841561146e578287015190505b61147885826113fa565b8655506114e0565b601f19841661148e8661126a565b60005b828110156114b657848901518255600182019150602085019450602081019050611491565b868310156114d357848901516114cf601f8916826113dc565b8355505b6001600288020188555050505b505050505050565b60006114f3826109b9565b91506114fe836109b9565b925082820390508181111561151657611515611193565b5b92915050565b7f4e487b7100000000000000000000000000000000000000000000000000000000600052603260045260246000fdfea26469706673582212204277086f6f8142512247451d898cf767e368a8f0ed24d126f7364179f872daa364736f6c634300081c0033",
  "linkReferences": {},
  "deployedLinkReferences": {}
}